{
  "_format": "hh-sol-artifact-1",
  "contractName": "seenpage",
  "sourceName": "contracts/seenpage.sol",
  "abi": [
    {
      "anonymous": false,
      "inputs": [
        {
          "indexed": false,
          "internalType": "uint256",
          "name": "id",
          "type": "uint256"
        },
        {
          "indexed": false,
          "internalType": "string",
          "name": "hash",
          "type": "string"
        },
        {
          "indexed": false,
          "internalType": "string",
          "name": "description",
          "type": "string"
        },
        {
          "indexed": false,
          "internalType": "uint256",
          "name": "tip",
          "type": "uint256"
        },
        {
          "indexed": false,
          "internalType": "address payable",
          "name": "author",
          "type": "address"
        }
      ],
      "name": "createImage",
      "type": "event"
    },
    {
      "anonymous": false,
      "inputs": [
        {
          "indexed": false,
          "internalType": "uint256",
          "name": "id",
          "type": "uint256"
        },
        {
          "indexed": false,
          "internalType": "string",
          "name": "hash",
          "type": "string"
        },
        {
          "indexed": false,
          "internalType": "string",
          "name": "description",
          "type": "string"
        },
        {
          "indexed": false,
          "internalType": "uint256",
          "name": "tip",
          "type": "uint256"
        },
        {
          "indexed": false,
          "internalType": "address payable",
          "name": "author",
          "type": "address"
        }
      ],
      "name": "tipImage",
      "type": "event"
    },
    {
      "inputs": [
        {
          "internalType": "uint256",
          "name": "",
          "type": "uint256"
        }
      ],
      "name": "images",
      "outputs": [
        {
          "internalType": "uint256",
          "name": "id",
          "type": "uint256"
        },
        {
          "internalType": "string",
          "name": "hash",
          "type": "string"
        },
        {
          "internalType": "string",
          "name": "description",
          "type": "string"
        },
        {
          "internalType": "uint256",
          "name": "tip",
          "type": "uint256"
        },
        {
          "internalType": "address payable",
          "name": "author",
          "type": "address"
        }
      ],
      "stateMutability": "view",
      "type": "function"
    },
    {
      "inputs": [
        {
          "internalType": "uint256",
          "name": "_id",
          "type": "uint256"
        }
      ],
      "name": "tippingImage",
      "outputs": [],
      "stateMutability": "payable",
      "type": "function"
    },
    {
      "inputs": [
        {
          "internalType": "string",
          "name": "_hash",
          "type": "string"
        },
        {
          "internalType": "string",
          "name": "_description",
          "type": "string"
        }
      ],
      "name": "uploadImage",
      "outputs": [],
      "stateMutability": "nonpayable",
      "type": "function"
    }
  ],
  "bytecode": "0x60806040526000805534801561001457600080fd5b50610d0f806100246000396000f3fe6080604052600436106100345760003560e01c80638485648214610039578063953cd3231461007a578063a91b831414610096575b600080fd5b34801561004557600080fd5b50610060600480360381019061005b91906107e0565b6100bf565b6040516100719594939291906108f6565b60405180910390f35b610094600480360381019061008f91906107e0565b610225565b005b3480156100a257600080fd5b506100bd60048036038101906100b89190610a8c565b610555565b005b60016020528060005260406000206000915090508060000154908060010180546100e890610b33565b80601f016020809104026020016040519081016040528092919081815260200182805461011490610b33565b80156101615780601f1061013657610100808354040283529160200191610161565b820191906000526020600020905b81548152906001019060200180831161014457829003601f168201915b50505050509080600201805461017690610b33565b80601f01602080910402602001604051908101604052809291908181526020018280546101a290610b33565b80156101ef5780601f106101c4576101008083540402835291602001916101ef565b820191906000526020600020905b8154815290600101906020018083116101d257829003601f168201915b5050505050908060030154908060040160009054906101000a900473ffffffffffffffffffffffffffffffffffffffff16905085565b60008111801561023757506000548111155b61024057600080fd5b6000600160008381526020019081526020016000206040518060a00160405290816000820154815260200160018201805461027a90610b33565b80601f01602080910402602001604051908101604052809291908181526020018280546102a690610b33565b80156102f35780601f106102c8576101008083540402835291602001916102f3565b820191906000526020600020905b8154815290600101906020018083116102d657829003601f168201915b5050505050815260200160028201805461030c90610b33565b80601f016020809104026020016040519081016040528092919081815260200182805461033890610b33565b80156103855780601f1061035a57610100808354040283529160200191610385565b820191906000526020600020905b81548152906001019060200180831161036857829003601f168201915b50505050508152602001600382015481526020016004820160009054906101000a900473ffffffffffffffffffffffffffffffffffffffff1673ffffffffffffffffffffffffffffffffffffffff1673ffffffffffffffffffffffffffffffffffffffff168152505090506000816080015190508073ffffffffffffffffffffffffffffffffffffffff166108fc349081150290604051600060405180830381858888f1935050505015801561043f573d6000803e3d6000fd5b503482606001516104509190610b94565b82606001818152505081600160008581526020019081526020016000206000820151816000015560208201518160010190805190602001906104939291906106f3565b5060408201518160020190805190602001906104b09291906106f3565b506060820151816003015560808201518160040160006101000a81548173ffffffffffffffffffffffffffffffffffffffff021916908373ffffffffffffffffffffffffffffffffffffffff1602179055509050507fa9fb61f0d7eba2fa4816e089e262e8c70b98bfbed45777020af7b2e02df37c1483836020015184604001518560600151336040516105489594939291906108f6565b60405180910390a1505050565b600082511161056357600080fd5b600081511161057157600080fd5b600073ffffffffffffffffffffffffffffffffffffffff163373ffffffffffffffffffffffffffffffffffffffff16116105aa57600080fd5b6000808154809291906105bc90610bea565b91905055506040518060a001604052806000548152602001838152602001828152602001600081526020013373ffffffffffffffffffffffffffffffffffffffff16815250600160008054815260200190815260200160002060008201518160000155602082015181600101908051906020019061063b9291906106f3565b5060408201518160020190805190602001906106589291906106f3565b506060820151816003015560808201518160040160006101000a81548173ffffffffffffffffffffffffffffffffffffffff021916908373ffffffffffffffffffffffffffffffffffffffff1602179055509050507f897a1a3accbf36f38a0e593ed36437af5186862379660c4d057ce89c29564a5f60005483836000336040516106e7959493929190610c78565b60405180910390a15050565b8280546106ff90610b33565b90600052602060002090601f0160209004810192826107215760008555610768565b82601f1061073a57805160ff1916838001178555610768565b82800160010185558215610768579182015b8281111561076757825182559160200191906001019061074c565b5b5090506107759190610779565b5090565b5b8082111561079257600081600090555060010161077a565b5090565b6000604051905090565b600080fd5b600080fd5b6000819050919050565b6107bd816107aa565b81146107c857600080fd5b50565b6000813590506107da816107b4565b92915050565b6000602082840312156107f6576107f56107a0565b5b6000610804848285016107cb565b91505092915050565b610816816107aa565b82525050565b600081519050919050565b600082825260208201905092915050565b60005b8381101561085657808201518184015260208101905061083b565b83811115610865576000848401525b50505050565b6000601f19601f8301169050919050565b60006108878261081c565b6108918185610827565b93506108a1818560208601610838565b6108aa8161086b565b840191505092915050565b600073ffffffffffffffffffffffffffffffffffffffff82169050919050565b60006108e0826108b5565b9050919050565b6108f0816108d5565b82525050565b600060a08201905061090b600083018861080d565b818103602083015261091d818761087c565b90508181036040830152610931818661087c565b9050610940606083018561080d565b61094d60808301846108e7565b9695505050505050565b600080fd5b600080fd5b7f4e487b7100000000000000000000000000000000000000000000000000000000600052604160045260246000fd5b6109998261086b565b810181811067ffffffffffffffff821117156109b8576109b7610961565b5b80604052505050565b60006109cb610796565b90506109d78282610990565b919050565b600067ffffffffffffffff8211156109f7576109f6610961565b5b610a008261086b565b9050602081019050919050565b82818337600083830152505050565b6000610a2f610a2a846109dc565b6109c1565b905082815260208101848484011115610a4b57610a4a61095c565b5b610a56848285610a0d565b509392505050565b600082601f830112610a7357610a72610957565b5b8135610a83848260208601610a1c565b91505092915050565b60008060408385031215610aa357610aa26107a0565b5b600083013567ffffffffffffffff811115610ac157610ac06107a5565b5b610acd85828601610a5e565b925050602083013567ffffffffffffffff811115610aee57610aed6107a5565b5b610afa85828601610a5e565b9150509250929050565b7f4e487b7100000000000000000000000000000000000000000000000000000000600052602260045260246000fd5b60006002820490506001821680610b4b57607f821691505b60208210811415610b5f57610b5e610b04565b5b50919050565b7f4e487b7100000000000000000000000000000000000000000000000000000000600052601160045260246000fd5b6000610b9f826107aa565b9150610baa836107aa565b9250827fffffffffffffffffffffffffffffffffffffffffffffffffffffffffffffffff03821115610bdf57610bde610b65565b5b828201905092915050565b6000610bf5826107aa565b91507fffffffffffffffffffffffffffffffffffffffffffffffffffffffffffffffff821415610c2857610c27610b65565b5b600182019050919050565b6000819050919050565b6000819050919050565b6000610c62610c5d610c5884610c33565b610c3d565b6107aa565b9050919050565b610c7281610c47565b82525050565b600060a082019050610c8d600083018861080d565b8181036020830152610c9f818761087c565b90508181036040830152610cb3818661087c565b9050610cc26060830185610c69565b610ccf60808301846108e7565b969550505050505056fea2646970667358221220fc99e615bc4b2757ea195f6cc94017782cf606b3e90e3ba5cf10f1b01c4074d164736f6c63430008090033",
  "linkReferences": {},
  "deployedLinkReferences": {}
}